:1000000009C021C020C01FC01EC01DC01CC01BC015
:100010001AC019C011241FBECFE9CDBF10E0A0E661
:10002000B0E0ECE2F2E002C005900D92AC36B10710
:10003000D9F720E0ACE6B0E001C01D92AD36B207C2
:10004000E1F7C3D0F1C0DCCFC09AC19A80E18A95B4
:10005000F1F700C0C0980895C19880E18A95F1F742
:1000600000C0C09880E18A95F1F700C0C19A80E194
:100070008A95F1F700C0C09A089598E0C19820E1F0
:100080002A95F1F700C080FF02C0C09A01C0C09855
:10009000C19A20E12A95F1F700C08695915071F739
:1000A000C198B898C09A80E18A95F1F700C081E0C4
:1000B000B09902C080E002C0B89AC09890E19A95C9
:1000C000F1F700C0C19A20E12A95F1F700C0C1986C
:1000D00090E19A95F1F700C0B89A0895CF93DF9315
:1000E0001F92CDB7DD278091610090916C0090FD4B
:1000F00002C0806801C088688983A6DF8981BDDF6E
:100100000F90DF91CF91A8CF1F93CF93DF931F92D2
:10011000CDB7DD27182F698397DF84E4AEDF9CDF3E
:1001200093DF812F806CA9DF6981862FA6DF94DFA2
:100130000F90DF91CF911F91D1CF6A3030F4E62F2D
:10014000F0E0EE59FF4F908101C090E0813031F432
:100150006093600020916C0021FD9068692FD4CFDE
:1001600090916C00882311F0926001C09D7F909364
:100170006C006091600081E0E0CF80E0F1DF60E042
:1001800080E0C2DF60E081E0BFDF60E082E0BCDFF2
:1001900060E083E0B9CF87B3836087BB88B38C7F8F
:1001A00088BB80916C00816080936C00E6CF877083
:1001B0008093610093CF90916C00882311F091603F
:1001C00001C09E7F90936C0089CFE5DF10E0612F26
:1001D0006F7080E0B2DFC12FD0E0BE016F5F7F4F54
:1001E0006F70772781E0A9DFBE016E5F7F4F6F7070
:1001F000772782E0A2DFBE016D5F7F4F6F707727A8
:1002000083E09BDF81E0ACDF8FE19EE40197F1F7B3
:1002100000C0000080E0A4DF8FE19EE40197F1F7C9
:0C02200000C000001F5FD3CFF894FFCF98
:0C022C00FF073F065B4F666D7D077F6F8C
:00000001FF
