:1000000009C021C020C01FC01EC01DC01CC01BC015
:100010001AC019C011241FBECFE9CDBF10E0A0E661
:10002000B0E0EEE4F3E002C005900D92AC36B1070B
:10003000D9F710E0ACE6B0E001C01D92A037B107DF
:10004000E1F705D182C1DCCF98E0C39880FF02C000
:10005000C49A01C0C49800C000C08695C39A00C06D
:1000600000C0915091F7C39882E08A95F1F7BC984F
:10007000B499FECFBC9AC39A00C00000C3980895FB
:10008000C39AC49A00C00000C4980895C39800C0E1
:100090000000C49800C00000C39A00C00000C49AC9
:1000A000089587B3886187BB08951F93CF93DF932B
:1000B000CDB7DD27C350CDBF182F2B834A8369836B
:1000C000DFDF80E4C1DFE2DFDBDF80ECBDDF812F3B
:1000D000BBDF6981862FB8DF4A81842FB5DF2B8192
:1000E000822FB2DFD3DFCCDF8FE8AEDFCFDF8BED47
:1000F00095E00197F1F700C00000CD5FCDBFDF9123
:10010000CF911F91089587B1816287B986B18368C5
:1001100086B90895369A3699FECF8BE291E0019721
:10012000F1F700C0000085B10895E199FECF8EBBC4
:10013000E09A1EBA8DB308951F93CF93DF931F9259
:10014000CDB7DD27182F6983F0DF6981861739F075
:10015000E199FECF1CBA1EBB6DBBE29AE19A0F90EB
:10016000DF91CF911F910895B898B99AC098C1981E
:1001700008956F927F928F929F92AF92BF92CF928B
:10018000DF92EF92FF920F931F93CF93DF9308ECD0
:1001900010E094E6E92EF12C2EEFC22ED12C3AE09D
:1001A000932E44E6842E58EEA52E53E0B52E89EC0E
:1001B000782EC0E0D0E07A94772021F0ABDFC80F32
:1001C000D11DF9CFCE01B80199D0CB0164E670E022
:1001D00078D0B60193D0EB01862F692D83D0292FDB
:1001E00030E02E593F4F8C2F682D7CD0892F692D00
:1001F00079D0E82FF0E0CF018E599F4F3C01CE011E
:10020000B50190D0B7018ED0DB01AE59BF4FF901D7
:100210002081F30140816C918FE347DFCA30D10523
:1002200010F4C19A03C0659708F0C198B199BFCF87
:10023000DF91CF911F910F91FF90EF90DF90CF90C2
:10024000BF90AF909F908F907F906F9008955BDFED
:1002500028DF8FE59AEE0197F1F700C000002FE349
:100260004FE36FE38FE321DF7FDFCFE1D0E0219722
:1002700041F07FDF8FE295E70197F1F700C00000C2
:10028000F6CFCFE1D0E0219761F02FE346E060E4C4
:1002900088E30BDF8FE295E70197F1F700C00000DC
:1002A000F2CFCFE1D0E0219701F32FE34BE560E4FB
:1002B00086E7FBDE8FE295E70197F1F700C00000CB
:1002C000F2CF0024552704C0080E591F880F991F2C
:1002D000009729F076956795B8F37105B9F7802DE9
:1002E000952F0895991B79E004C0991F961708F07F
:1002F000961B881F7A95C9F780950895AA1BBB1B8A
:1003000051E107C0AA1FBB1FA617B70710F0A61B15
:10031000B70B881F991F5A95A9F780959095BC0136
:10032000CD01089597FB072E16F4009406D077FDB3
:1003300008D0E4DF07FC05D03EF4909581959F4FEF
:0E0340000895709561957F4F0895F894FFCF52
:0C034E000A0A3F065B4F666D7D077F6F5B
:00000001FF
