:020000020000FC
:100000000FE90DBF03E007BB002708BBBB9ABC9AF2
:1000100003EC06B901E207B9BA99C29900E0202EB3
:100020008BE07CE06DE050E020D005E06CD00A95DC
:100030000030E1F78BE0369A00003699FECF0000E1
:1000400005B180D00F3020F00A3124F4B19B03C0F9
:10005000C19A01C0C19861D008D055D0B19904C0EF
:10006000C09802C0C09A00C0E5CF0F933FD000E413
:100070001DD041D03BD000EC19D0082F12D016D0A3
:10008000072F0FD013D0062F0CD010D0052F09D07A
:100090000DD031D02BD00FE809D02DD000000F911A
:1000A0000895E2E6F1E0E00F0491089518E0C398A6
:1000B000202F2170213011F4C49A02C0C49800C0CE
:1000C00000000695C39A00001A95103081F7C39876
:1000D0000000BC98B499FECFBC9AC39A0000C398A4
:1000E00008950A9500000030E1F70895C39AC49A74
:1000F0000000C4980895C3980000C4980000C39AF3
:100100000000C49A089524E03CE044E34A95F1F7E6
:100110003A95E1F72A95D1F708951F9311272227E1
:10012000043618F004562395FBCF0A3018F00A5015
:100130001395FBCF203009F42AE0722F502F612F46
:100140001F910895E0E7F1E02FEF3E2F4F2F239509
:100150001591243618F4011708F0F9CF2A95022FCB
:1001600008953F065B4F666D7D077F6F4076793857
:10017000000205070A0C0F111416191B1E21232655
:10018000282B2D303235373A3C3F424447494C4EBC
:10019000515356585B5D606365686A6D6F72747722
:1001A000797C7F818486898B8E909395989A9DA087
:1001B000A2A5A7AAACAFB1B4B6B9BBBEC1C3C6C8ED
:1001C000CBCDD0D2D5D7DADCDFE2E4E7E9ECEEF153
:0601D000F3F6F8FBFEFF50
:00000001FF
