:100000000EC028C071C426C025C0A4C223C022C00F
:1000100021C020C01FC01EC01DC01CC01BC0112499
:100020001FBECFE5D2E0DEBFCDBF10E0A0E6B0E05E
:10003000E2EFF9E002C005900D92AC37B107D9F7B5
:1000400021E0ACE7B0E001C01D92A132B207E1F7B8
:100050006ED4CDC4D5CF082E000C990B062E000C03
:10006000770B26E0660F771F2A95E1F7682B792B2F
:10007000842F90E0982F8827990F990F862B972B24
:1000800008950F931F93CF93DF939C0168EE73E065
:1000900078D4462F972F862F68E17CEF55D4280F10
:1000A000391FC90164E670E06CD4062F972F862FA4
:1000B0006CE97FEF49D4280F391FC9016AE070E06D
:1000C00060D4162F972F862F66EF7FEF3DD4EC017B
:1000D000C20FD31F642F80E0F5D1602F81E0F2D1F1
:1000E000612F82E0EFD16C2F83E0ECD180E090E0D3
:1000F000DF91CF911F910F910895CF93DF93C82F78
:10010000CF73BC0186E0769567958A95E1F7D62F87
:10011000DF70892F8695869580FF02C06BE601C04F
:1001200063E683E0B6D18C2F6AE01FD4982F66EF88
:1001300002D4C80F692F80E0C5D16C2F81E0C2D1F5
:100140006D2F82E0BFD181E0DF91CF91CEC19C01C4
:1001500090E02115310539F09F5FA9014150510907
:1001600024233523F6CF892F809581700895E19956
:10017000FECF1CBA90E09FBB8EBB6DBBF894E29A99
:10018000E19A78940895E199FECF90E09FBB8EBBF1
:10019000E09A8DB308951F93CF93DF9300D0CDB72E
:1001A000DEB780916300909164000297A1F403D2BE
:1001B00028EC30E040E050E0F8D3672B682B692B47
:1001C00051F48091810011E081278FD180918100CD
:1001D000812780938100EFD124E630E040E050E0B9
:1001E000E4D3672B682B692B09F0D5C0B29B37C0CD
:1001F00083ED90E30197F1F700C0000010928300B7
:100200001092840010928500109286008091600008
:100210008F5F8093600090916100981724F4809123
:1002200062008093600080916000881F8827881F8B
:1002300080937F00809163009091640082309105EB
:1002400071F09093200180931F0182E090E09093E1
:1002500064008093630080E196DF8093600080916A
:10026000630090916400029719F58091830090914A
:100270008400A0918500B09186000196A11DB11D5A
:100280008093830090938400A0938500B0938600B0
:10029000C397A105B10560F080911F0190912001E5
:1002A00090936400809363006091600080E15FDF61
:1002B000EBD1882309F445C0EAD189839A83ECD134
:1002C00089819A81482F4F739C0156E03695279576
:1002D0005A95E1F72F7030917E00231320937E0012
:1002E0002091820030917F0031112195241728F050
:1002F00021E020938000C19A03C010928000C19831
:100300001092800090937D0080937C0020DFC19A42
:10031000811110C083ED90E30197F1F700C0000058
:10032000C198C19A83ED90E30197F1F700C00000F6
:10033000C198C19A83ED90E30197F1F700C00000E6
:10034000C19880916300909164008130910529F4F7
:1003500080917C0090917D0018C00297E1F480911B
:100360006000082E000C990B97FF03C091958195B2
:100370009109082E000C990B20917F0030E0322F5C
:100380002227330F330F822B932B0F900F90DF9187
:10039000CF911F91B2CE0F900F90DF91CF911F910F
:1003A00008958BB780628BBFA89A85B7816085BF9F
:1003B0000895F5D0B5D05FD1B99ABA98C29880E1C6
:1003C000E2DE80936000881F8827881F80937F006B
:1003D0000895C39AC49A80E18A95F1F700C0C39842
:1003E0000895C49880E18A95F1F700C0C39880E130
:1003F0008A95F1F700C0C49A80E18A95F1F700C0B0
:10040000C39A089598E0C49820E12A95F1F700C0B6
:1004100080FF02C0C39A01C0C398C49A20E12A9504
:10042000F1F700C08695915071F7C498BB98C39AB4
:1004300080E18A95F1F700C081E0B39902C080E0C5
:1004400002C0BB9AC39890E19A95F1F700C0C49A94
:1004500020E12A95F1F700C0C49890E19A95F1F750
:1004600000C0BB9A0895CF93DF931F92CDB7DEB73C
:10047000809167009091870090FD02C0806801C064
:1004800088688983A6DF8981BDDF0F90DF91CF91D6
:10049000A8CF1F93CF93DF931F92CDB7DEB7182F4E
:1004A000698397DF84E4AEDF9CDF93DF812F806C6C
:1004B000A9DF6981862FA6DF94DF0F90DF91CF91AE
:1004C0001F91D1CF6A3030F4E62FF0E0E859FF4FAA
:1004D000908101C090E0813031F4609366002091FA
:1004E000870021FD9068692FD4CF909187008823E1
:1004F00011F0926001C09D7F90938700609166002B
:1005000081E0E0CF80E0F1DF60E080E0C2DF60E02A
:1005100081E0BFDF60E082E0BCDF60E083E0B9CF74
:1005200087B3886187BB88B3877E88BB809187004B
:10053000816080938700E6CF87708093670093CFB8
:1005400090918700882311F0916001C09E7F909365
:10055000870089CF1F920F920FB60F9211248F93AD
:100560009F93AF93BF938091880090918900A09151
:100570008A00B0918B000196A11DB11D8093880067
:1005800090938900A0938A00B0938B00BF91AF91A4
:100590009F918F910F900FBE0F901F90189583B76A
:1005A000816083BF8AB583608ABD89B7826089BF55
:1005B00012BE78940895F894789480918800909170
:1005C0008900A0918A00B0918B00BC01CD0122E08E
:1005D00096958795779567952A95D1F70895F8941C
:1005E00078948091880090918900A0918A00B091C0
:1005F0008B006627782F892F9A2F089548B321E022
:1006000030E0613049F4B90102C0660F771F8A9566
:10061000E2F7CB01842B09C0B90102C0660F771F36
:100620008A95E2F7CB018095842388BB089547B370
:1006300021E030E0613049F4B90102C0660F771F54
:100640008A95E2F7CB01842B09C0B90102C0660F7D
:10065000771F8A95E2F7CB018095842387BB0895A5
:100660008A31910538F046979695879596958795A6
:100670000197F1F708958BB780628BBFA89A85B771
:10068000816085BF78940895809197000895809146
:100690008D0090918E00089510928E0010928D0022
:1006A000109298001092970008955F926F927F9237
:1006B0008F929F92AF92BF92CF92DF92EF92FF9272
:1006C0000F931F93CF93DF938B01809199009091AB
:1006D0009A006FE170E055D1D62E272F562EC72EE7
:1006E000862F972F6CE370E02FD164E670E049D13C
:1006F0004B018D2D922F63E070E026D1A9E9B0E087
:10070000EE24E394F12CE0E0F0E0380121E0621AFD
:100710007108A12CB12CE614F70408F057C0EE0FB5
:10072000FF1FC52DDC2D12962D913C911397A90129
:100730004C1B5D0B57FF03C0519541955109052E88
:10074000000C660B770B481559056A057B05A0F46C
:1007500014964D915C911597481B590B57FF03C098
:10076000519541955109052E000C660B770B4815E4
:1007700059056A057B0528F1281B390B37FF03C093
:10078000319521953109A901330F660B770B481577
:1007900059056A057B0550F514962D913C911597E6
:1007A0002C1B3D0B37FF03C0319521953109A90161
:1007B000330F660B770B481559056A057B05B0F4B6
:1007C000E16022E0E20EF11C1496A5CF083011057D
:1007D0006CF0FF77F0938E00E0938D00D0928C0048
:1007E00081E090E09093980080939700DF91CF9103
:1007F0001F910F91FF90EF90DF90CF90BF90AF903F
:100800009F908F907F906F905F900895CF92DF922E
:10081000EF92FF92CF93DF93E2DE6B017C01809138
:10082000930090919400E601C81BD90BCD3C20E1C8
:10083000D20750F18091990090919A009E01281B57
:10084000390BC90137FF03C0919581959109883C07
:100850009105B4F48091910090919200019690934B
:10086000920080939100029759F460918F007091EB
:10087000900081E090E019DF1092920010929100B8
:100880001092900010928F0080918F0090919000B4
:100890008334910540F01092900010928F001092D6
:1008A00092001092910080918F00909190009C0195
:1008B0002F5F3F4F3093900020938F00880F991F38
:1008C000FC01E756FF4FD183C083C0929300D092C2
:1008D0009400E0929500F0929600DF91CF91FF9006
:1008E000EF90DF90CF9008951F920F920FB60F9266
:1008F00011242F933F934F935F936F937F938F9325
:100900009F93AF93BF93EF93FF9380DFFF91EF919E
:10091000BF91AF919F918F917F916F915F914F9117
:100920003F912F910F900FBE0F901F90189541DDB2
:10093000789431DCFECF002480FD060E660F11F0A6
:100940008695D1F7802D08950024552704C0080E00
:10095000591F880F991F009729F076956795B8F36E
:100960007105B9F7802D952F0895991B79E004C082
:10097000991F961708F0961B881F7A95C9F78095DE
:100980000895AA1BBB1B51E107C0AA1FBB1FA617D6
:10099000B70710F0A61BB70B881F991F5A95A9F728
:1009A00080959095BC01CD010895A1E21A2EAA1B55
:1009B000BB1BFD010DC0AA1FBB1FEE1FFF1FA2170F
:1009C000B307E407F50720F0A21BB30BE40BF50B0C
:1009D000661F771F881F991F1A9469F76095709595
:1009E000809590959B01AC01BD01CF010895F894CD
:0209F000FFCF37
:1009F200F628E2010005FF073F065B4F666D7D07A3
:0C0A02007F6F5E01011F01030301000073
:00000001FF
