:1000000009C016C015C014C013C012C011C010C062
:1000100010C00EC011241FBECFE9CDBF20E0A0E666
:10002000B0E001C01D92A636B207E1F7A5D1D3C159
:10003000E7CF1F920F920FB60F9211242F933F9389
:100040004F935F936F937F938F939F93AF93BF93E0
:10005000EF93FF93CF93DF93CDB7DD27C350CDBF91
:10006000CE01019656D18823C9F08981843021F4CC
:100070008A818E3150F412C0853080F0863128F0AC
:10008000863161F48A818F3148F4369A3699FECFF1
:1000900085B18F3710F4C49A01C0C49881B58064CB
:1000A00081BDCD5FCDBFDF91CF91FF91EF91BF912A
:1000B000AF919F918F917F916F915F914F913F9100
:1000C0002F910F900FBE0F901F901895982F82952B
:1000D0008F706AE077D19F70890F089590936500C3
:1000E000809364007093630060936200509361009A
:1000F00040936000089520E030E090E041E050E05F
:10010000BC01022E02C0759567950A94E2F7E8B328
:1001100060FF0BC0BA010090620002C0660F771F3B
:100120000A94E2F7E62BE8BB0BC0BA01009062002C
:1001300002C0660F771F0A94E2F760956E2368BBD2
:1001400000C0E8B3BA010090600002C0660F771FDC
:100150000A94E2F7E62BE8BB00C0E8B3BA010090CE
:10016000600002C0660F771F0A94E2F760956E2365
:1001700068BB00C02F5F3F4F2830310509F6089556
:1001800027B381E090E00090620002C0880F991FC1
:100190000A94E2F78095822387BB80E020E030E07C
:1001A00041E050E066B370E00090620002C07595D7
:1001B00067950A94E2F760FF08C0BA01022E01C0F9
:1001C000660F0A94EAF7862B08C0BA01022E01C016
:1001D000660F0A94EAF76095862398B3BA010090F7
:1001E000600002C0660F771F0A94E2F7962B98BB57
:1001F00000C098B3BA010090600002C0660F771F7C
:100200000A94E2F76095692368BB00C02F5F3F4FF7
:100210002830310539F6089528B381E090E0009048
:10022000640002C0880F991F0A94E2F78095822328
:1002300088BB00C000C00000089548B3E4E6F0E0C9
:1002400081E090E09C01008002C0220F331F0A94DD
:10025000E2F72095242328BB47B39C01008002C00D
:10026000220F331F0A94E2F7422B47BB48B3A0E6A4
:10027000B0E09C010C9002C0220F331F0A94E2F7F9
:100280002095242328BB47B39C010C9002C0220F69
:10029000331F0A94E2F7422B47BB47B39C010090FF
:1002A000620002C0220F331F0A94E2F7422B47BBC1
:1002B00028B3008002C0880F991F0A94E2F7282B08
:1002C00028BB00C000C000000895EF92FF920F937A
:1002D0001F93CF93DF931F92CDB7DD27182F9983FC
:1002E000ACDF8FEB08DFE12E9981F92E00E010E002
:1002F00047DFF70181937F010F5F1F4F0830110522
:10030000B9F70F90DF91CF911F910F91FF90EF9070
:1003100083CFEF92FF920F931F93CF93DF93CDB7CD
:10032000DD27C850CDBF8C01CE010196CEDF8B8179
:100330008F73CCDEF82EF80180838A818F77C6DE3A
:10034000E82EF801818389818F77C0DE982FF8012C
:100350008283FBE3FE1530F087E18F1518F081E012
:100360009C3308F080E0C85FCDBFDF91CF911F9133
:100370000F91FF90EF90089542E050E061E070E04F
:1003800080E090E0ABDEBC9AC49887B1836287B905
:1003900086B1846886B9A89529E288E190E00FB615
:1003A000F894A89581BD0FBE21BD81B5806481BD43
:1003B000789485B7877E806185BF85B7806285BF69
:1003C0008895FFCF002480FD060E660F11F08695FC
:0A03D000D1F7802D0895F894FFCFB7
:00000001FF
