:100000000EC028C048C126C025C0B5C323C022C029
:1000100021C020C01FC01EC01DC01CC01BC0112499
:100020001FBECFE5D2E0DEBFCDBF10E0A0E6B0E05E
:10003000EAEBFAE002C005900D92AC37B107D9F7B0
:1000400021E0ACE7B0E001C01D92A633B207E1F7B2
:10005000D2D431C5D5CFFC01EE0FFF1FEB56FF4FB9
:10006000718360830895FC01EE0FFF1FEB56FF4F75
:10007000808191810895992787FD9095772767FD65
:10008000709526E0660F771F2A95E1F7862B972B50
:1000900050E0542F4427550F550F842B952B08956E
:1000A000861B970B97FF03C0919581959109089541
:1000B000809186009091870008952091860030916C
:1000C000870081E0232B09F480E0089510928700D7
:1000D0001092860008952F923F924F925F926F92F6
:1000E0007F928F929F92AF92BF92CF92DF92EF92C8
:1000F000FF920F931F93CF93DF937B018091AE000C
:100100009091AF006FE170E0A0D4B62E272F462E5D
:10011000572E862F972F6CE370E07AD464E670E058
:1001200094D4EB018B2D922F63E070E071D4A090FA
:100130009400A0919700B091980020909900309081
:100140009A0052E0C52ED12C01E010E020E030E012
:10015000370141E0641A71080615170508F06FC0F1
:10016000220F331F4201B801660F771FAB014255C2
:100170005F4FFA01408151814419550957FF03C06F
:100180005195419551094C175D07B0F4A601440FF4
:10019000551F42555F4FFA0140815181481B590B51
:1001A00057FF03C05195419551094C175D0720F445
:1001B000A1103FC011963DC062557F4FFB014081A9
:1001C0005181481B590B57FF03C051954195510967
:1001D0004C175D07C8F4A601440F551F42555F4FE9
:1001E000FA01408151814819590957FF03C05195BF
:1001F000419551094C175D0738F42160A11019C0D1
:10020000FFEF2F1A3F0A15C0B0939800A0939700F4
:1002100030929A0020929900A11009C080919B0011
:1002200090919C00019690939C0080939B0080E0AD
:100230001FC00E5F1F4F42E0C40ED11C8DCFB09384
:100240009800A093970030929A002092990080E144
:10025000E816F10464F33093870020938600B0928F
:100260008500A11004C030939E0020939D0081E082
:10027000DF91CF911F910F91FF90EF90DF90CF9082
:10028000BF90AF909F908F907F906F905F904F90B6
:100290003F902F9008951F920F920FB60F92112446
:1002A000CF92DF92EF92FF922F933F934F935F9302
:1002B0006F937F938F939F93AF93BF93CF93DF936E
:1002C000EF93FF93C19A9AD26B017C0180918E00CB
:1002D00090918F00E601C81BD90BCD3C20E1D207DD
:1002E000A0F18091A1009091A20001969093A200AC
:1002F0008093A1008091AE009091AF009E01281BD9
:10030000390BC90137FF03C0919581959109883C4C
:100310009105B4F480918C0090918D00019690939A
:100320008D0080938C00029759F460918A0070913F
:100330008B0081E090E0CFDE10928D0010928C0057
:1003400010928B0010928A000AC080919F009091B9
:10035000A000892B21F4D093A000C0939F0080912E
:100360008A0090918B008334910540F010928B00AD
:1003700010928A0010928D0010928C00E0918A00F9
:10038000F0918B00CF01019690938B0080938A00AF
:10039000EE0FFF1FE255FF4FD183C083C0928E0046
:1003A000D0928F00E0929000F0929100C19881E08D
:1003B00080939400FF91EF91DF91CF91BF91AF9126
:1003C0009F918F917F916F915F914F913F912F916D
:1003D000FF90EF90DF90CF900F900FBE0F901F9087
:1003E00018950F931F93CF93DF939C0168EE73E0F2
:1003F0002CD3462F972F862F68E17CEF09D3280F47
:10040000391FC90164E670E020D3062F972F862F8D
:100410006CE97FEFFDD2280F391FC9016AE070E057
:1004200014D3162F972F862F66EF7FEFF1D2EC01B2
:10043000C20FD31F642F80E096D2602F81E093D249
:10044000612F82E090D26C2F83E08DD280E090E02B
:10045000DF91CF911F910F910895CF93DF93C82F14
:10046000CF739C0176E0369527957A95E1F7D22FE8
:10047000DF70892F8695869580FF02C06BE601C0EC
:1004800063E683E057D28C2F6AE0D3D2982F66EFD1
:10049000B6D2C80F692F80E066D26C2F81E063D29C
:1004A0006D2F82E060D281E0DF91CF916FC2E19940
:1004B000FECF1CBA90E09FBB8EBB6DBBF894E29A56
:1004C000E19A78940895E199FECF90E09FBB8EBBAE
:1004D000E09A8DB30895CF9380916300909164006A
:1004E0000297A1F479D128EC30E040E050E0C1D28D
:1004F000672B682B692B51F480917F00C1E08C271A
:1005000045D280917F008C2780937F0065D124E6BF
:1005100030E040E050E0ADD2672B682B692B09F04A
:10052000CBC0B29B37C083ED90E30197F1F700C0D9
:1005300000001092810010928200109283001092AD
:100540008400809160008F5F8093600090916100D3
:10055000981724F48091620080936000809160007D
:10056000881F8827881F80937D0080916300909169
:1005700064008230910571F09093350180933401CD
:1005800082E090E0909364008093630081E19BDFC0
:10059000809360008091630090916400029719F548
:1005A0008091810090918200A0918300B09184009D
:1005B0000196A11DB11D8093810090938200A093AC
:1005C0008300B0938400C397A105B10560F08091CA
:1005D00034019091350190936400809363006091A1
:1005E000600081E164DF8091860090918700892B13
:1005F000E1F1C19A80918600909187001092870066
:1006000010928600209192003091930028173907AC
:1006100081F0C19A2FE936E841E021503040404056
:10062000E1F700C00000C19890939300809392007E
:100630001CC080917E00811118C0C19A83ED90E3A7
:100640000197F1F700C00000C198C19A83ED90E3D3
:100650000197F1F700C00000C198C19A83ED90E3C3
:100660000197F1F700C00000C1988091630090915C
:1006700064008130910531F4809192009091930053
:10068000CF91AFCE0297C1F480916000992787FD8A
:10069000909597FF03C0919581959109992787FDC2
:1006A000909520917D0030E0322F2227330F330FB9
:1006B000822B932BCF91D1CECF9108958BB78062AF
:1006C0008BBFA89A85B7816085BF089579D079D10D
:1006D000F5DFB99ABA98C29881E1F5DE809360009F
:1006E000881F8827881F80937D000895809194003B
:1006F000882309F43FC088E090E0909389008093BC
:10070000880080918800909189001816190624F5B8
:100710000197909389008093880063DE2FEE89E42F
:1007200092E0215080409040E1F700C00000E0914D
:100730008800F0918900EE0FFF1FEB56FF4F80817C
:1007400091814FDE2FEB85E494E021508040904072
:10075000E1F700C00000D5CF1092A2001092A100D6
:100760001092A00010929F001092940010928900A5
:100770001092880008951F920F920FB60F921124C5
:100780008F939F93AF93BF938091A9009091AA00FC
:10079000A091AB00B091AC000196A11DB11D80935A
:1007A000A9009093AA00A093AB00B093AC00BF91B6
:1007B000AF919F918F910F900FBE0F901F90189542
:1007C00083B7816083BF8AB583608ABD89B7826041
:1007D00089BF12BE78940895F89478946091A90026
:1007E0007091AA008091AB009091AC0022E09695A8
:1007F0008795779567952A95D1F70895F894789419
:100800008091A9009091AA00A091AB00B091AC009A
:100810006627782F892F9A2F089598B321E030E02A
:10082000082E01C0220F0A94EAF7613019F4922BC6
:1008300098BB08952095292328BB089597B321E0FC
:1008400030E0082E01C0220F0A94EAF7613019F453
:10085000922B97BB08952095292327BB08958A31B1
:10086000910538F0469796958795969587950197C7
:10087000F1F70895C39AC49A80E18A95F1F700C010
:10088000C3980895C49880E18A95F1F700C0C39891
:1008900080E18A95F1F700C0C49A80E18A95F1F76A
:1008A00000C0C39A089598E0C49820E12A95F1F712
:1008B00000C080FF02C0C39A01C0C398C49A20E15F
:1008C0002A95F1F700C08695915071F7C498BB98AE
:1008D000C39A80E18A95F1F700C081E0B39902C024
:1008E00080E002C0BB9AC39890E19A95F1F700C0EE
:1008F000C49A20E12A95F1F700C0C49890E19A9536
:10090000F1F700C0BB9A0895CF93DF931F92CDB744
:10091000DEB7809167009091AD0090FD02C08068C5
:1009200001C088688983A6DF8981BDDF0F90DF91D0
:10093000CF91A8CF1F93CF93DF931F92CDB7DEB790
:10094000182F698397DF84E4AEDF9CDF93DF812F6C
:10095000806CA9DF6981862FA6DF94DF0F90DF917D
:10096000CF911F91D1CF6A3030F4E62FF0E0EF58ED
:10097000FF4F908101C090E0813031F460936600B8
:100980002091AD0021FD9068692FD4CF9091AD00EA
:10099000882311F0926001C09D7F9093AD0060911B
:1009A000660081E0E0CF80E0F1DF60E080E0C2DF60
:1009B00060E081E0BFDF60E082E0BCDF60E083E018
:1009C000B9CF87B3886187BB88B3877E88BB8091A6
:1009D000AD0081608093AD00E6CF877080936700A3
:1009E00093CF9091AD00882311F0916001C09E7F5C
:1009F0009093AD0089CF6ADE789478DEFECF002434
:100A000080FD060E660F11F08695D1F7802D0895B2
:100A10000024552704C0080E591F880F991F0097FE
:100A200029F076956795B8F37105B9F7802D952F64
:100A30000895991B79E004C0991F961708F0961B3A
:100A4000881F7A95C9F780950895AA1BBB1B51E1B1
:100A500007C0AA1FBB1FA617B70710F0A61BB70B2E
:100A6000881F991F5A95A9F780959095BC01CD01D3
:100A70000895A1E21A2EAA1BBB1BFD010DC0AA1FDF
:100A8000BB1FEE1FFF1FA217B307E407F50720F0F7
:100A9000A21BB30BE40BF50B661F771F881F991F72
:100AA0001A9469F760957095809590959B01AC01BB
:0A0AB000BD01CF010895F894FFCFB7
:100ABA00F628E2010005FF075E01011F0103030199
:0C0ACA00003F065B4F666D7D077F6F00EC
:00000001FF
