:1000000024C04AC370C346C045C0D5C243C042C025
:1000100041C040C03FC03EC03DC03CC03BC00000EE
:100020000000370000000000380002020202020255
:10003000020202020102040810202004100801023A
:100040000000040000000000380411241FBECFE5AA
:10005000D2E0DEBFCDBF10E0A0E6B0E0E0E6F9E020
:1000600002C005900D92A037B107D9F721E0A0E7B3
:10007000B0E001C01D92A035B207E1F710E0C5E283
:10008000D0E003C02197FE0163D4C432D107D1F779
:1000900034D364C4B5CF90E0FC01E25CFF4F2491FF
:1000A000FC01EC5CFF4F3491FC01E65DFF4FE491F5
:1000B000EE2321F1222399F0223071F028F421302F
:1000C00071F48AB58F770AC0233011F0243039F4E7
:1000D0008CB58F7D8CBD03C08AB58F7D8ABDF0E065
:1000E000EE0FFF1FEC5DFF4FA591B4918FB7F89411
:1000F0009C91E32FE095E923EC938FBF0895CF9374
:10010000DF9390E0FC01EC5CFF4F2491FC01E65D85
:10011000FF4F8491882361F190E0880F991FFC01C3
:10012000E25EFF4FC591D491FC01EC5DFF4FA591BC
:10013000B491611109C09FB7F894888120958223FA
:100140008883EC912E230BC0623061F49FB7F89442
:100150003881822F809583238883EC912E2B2C93DA
:100160009FBF06C08FB7F894E8812E2B28838FBFDE
:10017000DF91CF9108953FB7F8948091210190913C
:100180002201A0912301B091240122B708B601FEFB
:1001900005C02F3F19F00196A11DB11D3FBFBA2F19
:1001A000A92F982F8827820F911DA11DB11DBC0179
:1001B000CD0146E0660F771F881F991F4A95D1F73A
:1001C000089508952F923F924F925F926F927F927F
:1001D0008F929F92AF92BF92CF92DF92EF92FF9257
:1001E0000F931F93CF93DF93CDB7DEB72F970FB643
:1001F000F894DEBF0FBECDBFBEDF6B017C018091E6
:100200001701909118013601681A790AC19A2DECEC
:10021000621620E1720608F4C7C080913301909104
:1002200034010196909334018093330180919100C1
:10023000909192009301281B390B37FF03C0319531
:1002400021953109283C31050CF0AAC020918F007E
:10025000309190002F5F3F4F3093900020938F009C
:100260002230310509F09CC0E0918D00F0918E00A4
:100270006FE170E037D36B83272F68877987862FEC
:10028000972F6CE370E011D364E670E02BD34B0141
:100290008B81922F63E070E008D39F838E8300915F
:1002A0002F011091300140912D0150912E01A1E9B3
:1002B000B0E081E090E09F878E871D861C869F01BD
:1002C000215031093B872A87A12CB12C8E859F852F
:1002D0002A853B858217930708F043C08C859D854E
:1002E000880F991F9D878C872885298339853A83B4
:1002F00012966D917C911397CB0129813A81821BD3
:10030000930B97FF03C09195819591091C01990F5B
:1003100044085508281439044A045B0408F087C0CF
:1003200014962D913C9115978E819F81281B390B36
:1003300037FF03C03195219531091901330F440866
:100340005508281439044A045B0408F070C00F5F94
:100350001F4F2E853F852E5F3F4F3F872E87149678
:10036000B5CF50932E0140932D011093300100938F
:100370002F0170978CF08C859D8590938C008093D5
:100380008B0080918B0090918C0090934F01809313
:100390004E01EB81E0938A001092900010928F0042
:1003A00010928E0010928D0080918D0090918E00A1
:1003B0008334910540F010928E0010928D001092BF
:1003C000900010928F0080918D0090918E009C0182
:1003D0002F5F3F4F30938E0020938D00880F991F21
:1003E000FC01EF56FF4F71826082C0921701D092DC
:1003F0001801E0921901F0921A01C1982F960FB6D8
:10040000F894DEBF0FBECDBFDF91CF911F910F914A
:10041000FF90EF90DF90CF90BF90AF909F908F9024
:100420007F906F905F904F903F902F9008959B0129
:100430008E819F81281B390B37FF03C03195219591
:100440003109B901330F880B990B681579058A05B5
:100450009B05F0F414962D913C91159789819A8112
:10046000281B390B37FF03C0319521953109B9019C
:10047000330F880B990B681579058A059B0540F4A5
:100480004F5F5F4F2C853D8521603D872C8761CF75
:1004900050932E0140932D011093300100932F01B2
:1004A00080913101909132010196909332018093B5
:1004B000310172CF98E0C49820E12A95F1F700C08D
:1004C00080FF02C0C39A01C0C398C49A20E12A9554
:1004D000F1F700C08695915071F7C498BB98C39A04
:1004E00080E18A95F1F700C0B39911C080E090E1F6
:1004F0009A95F1F700C0C49A20E12A95F1F700C05F
:10050000C49890E19A95F1F700C0BB9A0895BB9A00
:10051000C39881E0ECCFC49880E18A95F1F700C0E0
:10052000C39880E18A95F1F700C0C49A80E18A956A
:10053000F1F700C0C39A0895C39AC49A80E18A95DE
:10054000F1F700C0C39808951F93CF93DF931F92D4
:10055000CDB7DEB7182F6983EFDF84E4ABDFDBDFD5
:10056000EBDF812F806CA6DF6981862FA3DFD3DFCD
:1005700080914D0180FF02C08FE801C087E8898328
:10058000DBDF898197DF0F90DF91CF911F91C3CF80
:100590006A3030F4E62FF0E0EB59FF4F908101C054
:1005A00090E0813031F46093640020914D0121FD91
:1005B0009068692FC9CF1F920F920FB60F92112426
:1005C0002F933F938F939F93AF93BF938091290174
:1005D00090912A01A0912B01B0912C013091200122
:1005E00020E3230F2D3720F44096A11DB11D05C037
:1005F00023EB230F4196A11DB11D20932001809371
:10060000290190932A01A0932B01B0932C01809192
:10061000210190912201A0912301B0912401019622
:10062000A11DB11D8093210190932201A09323016C
:10063000B0932401BF91AF919F918F913F912F91E2
:100640000F900FBE0F901F9018951F920F920FB62C
:100650000F9211242F933F934F935F936F937F9348
:100660008F939F93AF93BF93EF93FF93E0916200BB
:10067000F09163000995FF91EF91BF91AF919F9128
:100680008F917F916F915F914F913F912F910F903B
:100690000FBE0F901F9018951F920F920FB60F92DA
:1006A00011242F933F934F935F936F937F938F9377
:1006B0009F93AF93BF93EF93FF93E0916000F0910E
:1006C00061000995FF91EF91BF91AF919F918F913B
:1006D0007F916F915F914F913F912F910F900FBE3E
:1006E0000F901F9018951F920F920FB60F92112422
:1006F0000F900FBE0F901F90189578948AB5826066
:100700008ABD8AB581608ABD83B7826083BF83B7A3
:10071000816083BF89B7826089BF80B7826080BFF4
:100720003298319A309A379A8CB580648CBD60E0EB
:1007300081E0E5DC61E082E0E2DC61E081E0DFDCD9
:1007400060E082E0DCDC87B3886187BB88B3877EAA
:1007500088BB80914D018D7F816080934D016091B8
:10076000640081E015DF60E080E0EEDE60E081E0C3
:10077000EBDE60E082E0E8DE60E083E0E5DE82EE72
:1007800090E0909361008093600085B78C7F8160DA
:1007900085BF8BB780648BBFEEDC609325017093BF
:1007A00026018093270190932801789438ECC32E7A
:1007B000D12CE12CF12C4AE0B42E00E010E0809125
:1007C0004E0190914F01892B09F44AC02FB7F8943C
:1007D0006091290170912A0180912B0190912C0147
:1007E0002FBFA701960192D0672B682B692BC1F50B
:1007F00040914E0150914F01C42FCF73CA0126E0A2
:10080000969587952A95E1F7D82FDF7052FF2EC075
:100810006BE683E099DE8C2F6B2D58D0982F66EF16
:100820003BD0C80F692F80E0B3DE6C2F81E0B0DED3
:100830006D2F82E0ADDE80914D01826080934D018D
:100840006091640081E0A4DE10924F0110924E018D
:10085000EDE2F1E01192119281E0ED34F807D1F769
:100860000115110509F4ABCFCBDBA9CF63E6D1CFDE
:10087000CF93DF93CBE1D1E084E0888383E0898369
:1008800060E084E03CDC60E0898139DC888103DC65
:100890008981DF91CF91FFCB002480FD060E660F8A
:1008A00011F08695D1F7802D08950024552704C0B6
:1008B000080E591F880F991F009729F076956795A4
:1008C000B8F37105B9F7802D952F0895991B79E03C
:1008D00004C0991F961708F0961B881F7A95C9F7D0
:1008E00080950895AA1BBB1B51E107C0AA1FBB1F1F
:1008F000A617B70710F0A61BB70B881F991F5A95AC
:10090000A9F780959095BC01CD010895A1E21A2E1A
:10091000AA1BBB1BFD010DC0AA1FBB1FEE1FFF1FA3
:10092000A217B307E407F50720F0A21BB30BE40BF3
:10093000F50B661F771F881F991F1A9469F760953A
:100940007095809590959B01AC01BD01CF010895F4
:10095000EE0FFF1F0590F491E02D0994F894FFCF5E
:10096000E100E100FF3F065B4F666D7D077F6F0092
:00000001FF
