:1000000009C016C015C014C013C012C011C010C062
:100010000FC00EC011241FBECFE9CDBF20E0A0E667
:10002000B0E001C01D92A736B207E1F757D1C8C1B1
:10003000E7CF8091630090E09C013862909164006A
:10004000892F90E046E0880F991F4A95E1F7822BAF
:10005000932B20916200022E000C330B322F2227AB
:10006000330F330F822B932B9C0140E04F5FB9017C
:10007000615071092623372321153105B9F740FD59
:10008000906490936100809360000895FC0180E08B
:100090003CE8615058F0219198E0422F482786951E
:1000A00040FD832726959150C1F7F3CF0895B89866
:1000B0008DE78150A1F000C0B09BFBCFC098B89AEB
:1000C00080EA8A95F1F7B89897E19A95F1F70000E0
:1000D00086B38095817098E89A95F1F700C00895ED
:1000E000C098B89A80FF09C083E08A95F1F70000B4
:1000F000C09A82E18A95F1F707C085E18A95F1F708
:1001000000C0C09A00C000C000000895B89AC0980E
:1001100000C00000B89883E08A95F1F7000086B32C
:1001200091E19A95F1F700C081700895EF92FF92E6
:100130000F931F93CF93DF931F92CDB7DD27082F27
:1001400088E0E82EF12C11E081E0912F902309F452
:1001500080E06983C5DF110F81E0E81AF108698149
:10016000E114F10489F7611102C0B898C0980F90AA
:10017000DF91CF911F910F91FF90EF9008950F9312
:100180001F93CF93DF9308E010E0D1E0C0E0BEDF23
:100190008111CD2BDD0F01501109C9F78C2FDF9193
:1001A000CF911F910F910895EF92FF921F93CF93DC
:1001B000DF931F92CDB7DD27182F7C018E2D811B79
:1001C000861738F46983DBDFF70181937F0169814A
:1001D000F5CF0F90DF91CF911F91FF90EF90089591
:1001E000EF92FF920F931F93CF93DF931F92CDB7A0
:1001F000DD27162F082F7C018E2D801B811740F4E0
:10020000642FF70181917F01498390DF4981F4CF09
:10021000411102C0B898C0980F90DF91CF911F9103
:100220000F91FF90EF900895209160003091610050
:10023000309366002093650021E030E0A90102C000
:10024000440F551F8A95E2F7CA01A42F80959BE0C1
:1002500061E070E0915009F440C02FE030E048B315
:100260004A2B48BB4091650050916600FB01022E6D
:1002700002C0EE0FFF1F0A94E2F74E235F23452BC7
:1002800069F0E6E0F1E03197F1F7000048B3482368
:1002900048BBF4E7FA95F1F700C00CC044E74A9573
:1002A000F1F700C048B3482348BBE6E0F1E03197DE
:1002B000F1F700002150310990F628B32A2B28BB12
:1002C00024E72A95F1F700C028B3282328BBE8E9E2
:1002D000FAE03197F1F70000BDCF0895CF93DF9397
:1002E000CDB7DD27C950CDBF87B38E6087BB29E06E
:1002F000F22E8E010F5F1F4F2FE38DE093E0215010
:1003000080409040E1F700C00000F8012F2D1192CD
:100310002A95E9F7CCDE61E08CEC08DF61E084E44B
:1003200005DF8FE39DE0E3E081509040E040E1F79E
:1003300000C00000BCDE61E08CECF8DE61E08EEB1A
:10034000F5DE69E0C80130DF68E0C8019FDE99850D
:100350008913D2CF2A8130E0322F22278981282B9E
:1003600094E0359527959A95E1F720936300809165
:1003700064008F5F8A3018F48093640002C010928A
:10038000640057DEC39A82E090E04EDF83ED90E395
:100390000197F1F700C00000C3989FEDE7E5FEE08C
:1003A0009150E040F040E1F700C000002FE382E40C
:1003B0009FE0215080409040E1F700C000009CCFBA
:0403C000F894FFCFDF
:00000001FF
