:1000000009C016C015C014C013C012C011C010C062
:100010000FC00EC011241FBECFE9CDBF20E0A0E667
:10002000B0E001C01D92A136B207E1F71CD17EC13C
:10003000E7CFFC0180E03CE8615058F0219198E066
:10004000422F4827869540FD832726959150C1F77A
:10005000F3CF0895B8988DE78150A1F000C0B09B10
:10006000FBCFC098B89A80EA8A95F1F7B89897E1E3
:100070009A95F1F7000086B38095817098E89A957B
:10008000F1F700C00895C098B89A80FF09C083E0D6
:100090008A95F1F70000C09A82E18A95F1F707C0CE
:1000A00085E18A95F1F700C0C09A00C000C0000049
:1000B0000895B89AC09800C00000B89883E08A9567
:1000C000F1F7000086B391E19A95F1F700C08170D5
:1000D0000895EF92FF920F931F93CF93DF931F9298
:1000E000CDB7DD27082F88E0E82EF12C11E081E064
:1000F000912F902309F480E06983C5DF110F81E01F
:10010000E81AF1086981E114F10489F7611102C06C
:10011000B898C0980F90DF91CF911F910F91FF90E9
:10012000EF9008950F931F93CF93DF9308E010E0B3
:10013000D1E0C0E0BEDF8111CD2BDD0F01501109F0
:10014000C9F78C2FDF91CF911F910F910895EF92F6
:10015000FF921F93CF93DF931F92CDB7DD27182F08
:100160007C018E2D811B861738F46983DBDFF70154
:1001700081937F016981F5CF0F90DF91CF911F911E
:10018000FF90EF900895EF92FF920F931F93CF93FC
:10019000DF931F92CDB7DD27162F082F7C018E2D00
:1001A000801B811740F4642FF70181917F014983FF
:1001B00090DF4981F4CF411102C0B898C0980F90E8
:1001C000DF91CF911F910F91FF90EF90089521E063
:1001D00030E0A90102C0440F551F8A95E2F7CA0119
:1001E000642F80959BE0915009F43CC047E050E0BB
:1001F00028B3262B28BB2091600030E0042E02C0DB
:10020000359527950A94E2F720FF0DC0E6E0F1E06E
:100210003197F1F7000028B3282328BBF4E7FA95BB
:10022000F1F700C00CC024E72A95F1F700C028B30D
:10023000282328BBE6E0F1E03197F1F700004150B8
:100240005109B0F628B3262B28BB24E72A95F1F7ED
:1002500000C028B3282328BBE8E9FAE03197F1F77A
:100260000000C1CF0895CF93DF93CDB7DD27C950EC
:10027000CDBF87B38E6087BB29E0F22E8E010F5F62
:100280001F4F2FE38DE093E0215080409040E1F735
:1002900000C00000F8012F2D11922A95E9F7DADE4F
:1002A00061E08CEC16DF61E084E413DF8FE39DE016
:1002B000E3E081509040E040E1F700C00000CADE7A
:1002C00061E08CEC06DF61E08EEB03DF69E0C801E2
:1002D0003EDF68E0C801ADDE99858913D2CF2A815F
:1002E00030E0322F22278981282B94E035952795FD
:1002F0009A95E1F72F3110F0C19A01C0C19820936F
:100300006000C39A82E090E062DF8FE493EC019793
:10031000F1F700C00000C3989FE1EFEBF2E09150CD
:10032000E040F040E1F700C00000ABCFF894FFCF11
:00000001FF
